:020000040800F2
:1000000000500020A9110008311100083311000828
:1000100035110008371100083911000800000000F0
:100020000000000000000000000000003B1100087C
:100030003D110008000000003F11000841110008B8
:10004000F1110008F1110008F1110008F111000888
:10005000F1110008F1110008F1110008F111000878
:10006000F1110008F1110008F1110008F111000868
:10007000F1110008F1110008F1110008F111000858
:10008000F1110008F1110008F1110008F111000848
:10009000F1110008F1110008F1110008F111000838
:1000A000F1110008F1110008F1110008F111000828
:1000B000F1110008F1110008F1110008F111000818
:1000C000F1110008F1110008F1110008F111000808
:1000D000F11100084511000851110008F111000844
:1000E000F1110008F1110008F111000800000000F2
:1000F0000000000000000000000000000000000000
:0C01000000000000000000005FF808F1A3
:10010C0010B5054C237833B9044B13B10448AFF345
:10011C0000800123237010BD20000020000000008F
:10012C004C12000808B5034B1BB103490348AFF34D
:10013C00008008BD00000000240000204C120008C4
:10014C0038B50E4B054618784FF47A73B3FBF0F3C1
:10015C000B4A1068B0FBF3F000F08CF8044658B969
:10016C000F2D09D8024629464FF0FF3000F042F817
:10017C00044B20461D6038BD012038BD0000002016
:10018C001C00002004000020074A08B51368032057
:10019C0043F01003136000F01BF80020FFF7D0FFB2
:1001AC0000F026FF002008BD00200240034A044B4B
:1001BC0011681B780B441360704700BF3C00002093
:1001CC0000000020014B1868704700BF3C00002065
:1001DC00074A0002D36800F4E06023F4E0631B04D8
:1001EC001B0C43F0BF6343F400330343D3607047ED
:1001FC0000ED00E0174B30B5DC68C4F30224C4F109
:10020C000703251D042B28BF0423062D4FF00105E1
:10021C0098BF002405FA03F303F1FF3388BF033CB6
:10022C001940A14005FA04F4013C2240002842EA9E
:10023C0001024FEA0212AFBF00F16040064B00F022
:10024C000F00D2B2A5BFD2B200F561401A5480F8AB
:10025C00002330BD00ED00E014ED00E00123420965
:10026C0000F01F0003FA00F0014B43F82200704726
:10027C0000E100E00138B0F1807F0AD2F021064B9A
:10028C00064A586082F823100020072298601A60F2
:10029C0070470120704700BF10E000E000ED00E067
:1002AC0090F8213010B5022B03D004238363012076
:1002BC0010BD03681A6822F00E021A601A6822F048
:1002CC0001021A60184A93421FD0143293421ED076
:1002DC00143293421DD0143293421DD014329342E7
:1002EC001DD0143293420CBF4FF480134FF0807327
:1002FC000E4A00245360012380F82130436B80F8B0
:10030C0020407BB19847204610BD0123F0E7102315
:10031C00EEE74FF48073EBE74FF48053E8E74FF4CC
:10032C008033E5E7184610BD08000240000002408B
:10033C002DE9F74F00221646654BDFF8A4E1DFF8F4
:10034C00A4C14FF001080C6808FA06F808EA040486
:10035C00A0457FD14D68122D00F0AF8000F288804F
:10036C00022D00F0A7807CD8002D00F08E80012D8E
:10037C0000F09E804FF00F09FF2C93BF824606F1D0
:10038C008045083DD0F800B092BFB500D0F804B05D
:10039C00AD0009FA05F82BEA080802FA05F588BF42
:1003AC0000F1040A48EA0505CAF80050D1F804A087
:1003BC001AF0805F4ED0474D464FAD6926F00308CA
:1003CC0045F00105BD61BD6908F1804805F00105E6
:1003DC00019508F5803806F0030B019D4FEA8B0B55
:1003EC00D8F8085009FA0BF925EA09093A4DA84240
:1003FC0068D005F58065A84266D005F58065A842F1
:10040C0064D005F58065A8420CBF0325042505FAC8
:10041C000BF545EA0905C8F808501D681AF4803F29
:10042C0014BF2543A5431D605D681AF4003F14BF3B
:10043C002543A5435D609D681AF4801F14BF2543B6
:10044C00A5439D60DD681AF4001F14BF2C4325EAF8
:10045C000404DC600136102E7FF473AF03B0BDE8EA
:10046C00F08F032D22D0112D84D1CA68043281E77C
:10047C001A4FBD4209D012D8DFF86C904D4504D00C
:10048C0009F580394D457FF475AF8A68C2B1012AF0
:10049C000CBFC0F81080C0F8148008226AE77545BC
:1004AC00F3D06545F1D0DFF84490EBE7002261E72B
:1004BC00CA685FE7CA6808325CE7CA680C3259E759
:1004CC00042257E70025A2E70125A0E702259EE7B5
:1004DC0000040140001002400008014000002110FF
:1004EC00000031100000321000001110000022102A
:1004FC000AB1016170470904FBE7C3685940C16048
:10050C007047000003682DE9F341DB07054610D462
:10051C002B689F075ED42B68190700F195802B6818
:10052C005A0700F1BF80EA69002A40F02D810020B3
:10053C0014E0904C636803F00C03042B07D0636841
:10054C0003F00C03082B0CD16368DE0309D5236878
:10055C009C03DDD56B68002BDAD1012002B0BDE81D
:10056C00F0816B68B3F5803F10D1236843F480337E
:10057C002360FFF727FE064623689803C8D4FFF7CD
:10058C0021FE801B6428F7D90320E7E79BB9236879
:10059C0023F480332360236823F480232360FFF744
:1005AC0011FE064623689903B2D5FFF70BFE801B9C
:1005BC006428F7D9E8E7B3F5A02F236803D143F4F7
:1005CC0080232360D1E723F480332360236823F452
:1005DC008023CDE7674C636813F00C0F07D063687A
:1005EC0003F00C03082B10D16368DA030DD42368D5
:1005FC009B0702D52B69012BAFD123686A6923F0C5
:10060C00F80343EAC203236085E72A695A4B6AB1AF
:10061C0001221A60FFF7D6FD064623689F07ECD42B
:10062C00FFF7D0FD801B0228F7D9ADE71A60FFF762
:10063C00C9FD0646236898077FF56DAFFFF7C2FD2D
:10064C00801B0228F6D99FE7AA694A4C4B4BDAB1BA
:10065C0001221A60FFF7B6FD0646636A9B070DD5AB
:10066C004FF4FA52464B1B68B3FBF2F3019300BFF5
:10067C00019B5A1E0192002BF9D150E7FFF7A2FD06
:10068C00801B0228E9D97FE71A60FFF79BFD06461D
:10069C00636A9F077FF543AFFFF794FD801B022829
:1006AC00F6D971E7334CE369D80024D40127E36908
:1006BC0043F08053E361E36903F080530093009BA4
:1006CC00304E3368D90518D5EB68012B26D1236A37
:1006DC0043F001032362FFF775FD41F28836804633
:1006EC00236A9B073FD5002F3FF41DAFE36923F02E
:1006FC008053E36117E70027E2E7336843F4807324
:10070C003360FFF75FFD80463368DA05DCD4FFF712
:10071C0059FDA0EB08006428F6D935E7ABB9236A7C
:10072C0041F2883823F001032362236A23F0040387
:10073C002362FFF747FD0646236A9807D3D5FFF7D8
:10074C0041FD801B4045F7D91EE7052B236A03D1D9
:10075C0043F004032362BAE723F001032362236A04
:10076C0023F00403B6E7FFF72DFDA0EB0800B04221
:10077C00B6D909E700100240000042428004424210
:10078C001C00002000700040224C636803F00C0336
:10079C00082B3FF4E2AE00231F4E022A33602BD10C
:1007AC00FFF710FD0746236899011FD42B6AB3F598
:1007BC00803F05D16268A96822F400320A43626066
:1007CC00696A62680B4322F4741213436360012359
:1007DC003360FFF7F7FC054623689A013FF5A7AE97
:1007EC00FFF7F0FC401B0228F6D9CDE6FFF7EAFC38
:1007FC00C01B0228D7D9C7E6FFF7E4FC05462368DF
:10080C009B017FF594AEFFF7DDFC401B0228F6D967
:10081C00BAE600BF001002406000424230B5194BEE
:10082C0087B002AC03F110052246186859680833EA
:10083C0003C2AB421446F7D101238DF804300223D6
:10084C0011498DF805304B6803F00C02082A17D1BA
:10085C00C3F3834206A80244DB0312F8102C0CD518
:10086C004B680A48C3F34043504306AA134413F899
:10087C00143CB0FBF3F007B030BD05485043FAE729
:10088C000248F8E7641200080010024000127A00D7
:10089C0000093D00544A2DE9F0411368054603F068
:1008AC0007038B420E462AD329688C0734D4CA0717
:1008BC0047D44D4A136803F007039E42C0F0828070
:1008CC002A684A4C12F0040F40F08780130706D5B3
:1008DC0063682A6923F4605343EAC2036360FFF739
:1008EC009DFF6368424AC3F30313D35CD840414B6A
:1008FC0018600020FFF724FC0020BDE8F08113688D
:10090C0023F007030B431360136803F007039942AA
:10091C00CAD00120BDE8F081344B11F0040F1EBF8A
:10092C005A6842F4E0625A60080742BF5A6842F4BF
:10093C0060525A605A68A86822F0F00202435A606A
:10094C00B5E76A68294C012A23681CD113F4003FCF
:10095C00DFD0636841F2883823F0030313436360EC
:10096C00FFF730FC6B680746012B14D1636803F06A
:10097C000C03042B9DD0FFF725FCC01B4045F5D97B
:10098C000320BDE8F081022A02D113F0007FDFE7DB
:10099C0013F0020FDCE7022B0FD1636803F00C039A
:1009AC00082B86D0FFF70EFCC01B4045F5D9E7E7B6
:1009BC00FFF708FCC01B4045E2D8636813F00C0F2E
:1009CC00F6D176E7136823F00703334313601368FB
:1009DC0003F007039E429CD172E76368E96823F435
:1009EC00E0630B43636071E700200240001002409B
:1009FC00741200081C000020044B054A5B68C3F30A
:100A0C000223D35C034A1068D840704700100240A0
:100A1C00841200081C000020044B054A5B68C3F3D9
:100A2C00C223D35C034A1068D840704700100240C0
:100A3C00841200081C0000200368DA6822F490720B
:100A4C00DA605A6922F001025A61202380F83A30A8
:100A5C00704700002DE9F0470568C2682B690169F1
:100A6C0023F4405313432B618368EA680B434169B9
:100A7C0022F4B05222F00C020B431343EB606B696F
:100A8C00826923F4407313436B61404B81469D4252
:100A9C004FF0190446D1FFF7BFFF04FB00F3D9F860
:100AAC0004604FF06408B600B3FBF6F3B3FBF8F345
:100ABC001E01FFF7B1FF6043D9F804309B00B0FB77
:100ACC00F3F7FFF7A9FF6043D9F804309B00B0FBA4
:100ADC00F3F3B3FBF8F308FB13731B013233B3FBD3
:100AEC00F8F303F0F007FFF797FF6043D9F8042001
:100AFC009200B0FBF2FAFFF78FFF6043D9F8043095
:100B0C009B00B0FBF3F3B3FBF8F308FB13A31B013F
:100B1C003233B3FBF8F303F00F033B433344AB60C6
:100B2C00BDE8F087FFF768FF04FB00F3D9F8046019
:100B3C004FF06408B600B3FBF6F3B3FBF8F31E01F9
:100B4C00FFF75AFF6043D9F804309B00B0FBF3F772
:100B5C00FFF752FF6043D9F804309B00B0FBF3F36E
:100B6C00B3FBF8F308FB13731B013233B3FBF8F33D
:100B7C0003F0F007FFF740FF6043D9F80420920020
:100B8C00B0FBF2FAFFF738FFB7E700BF00380140BF
:100B9C0010B5044640B390F8393003F0FF021BB98E
:100BAC0080F8382000F046FA2423226884F8393083
:100BBC00D368204623F40053D360FFF74BFF236820
:100BCC0000201A6922F490421A615A6922F02A0212
:100BDC005A61DA6842F40052DA602023E06384F848
:100BEC00393084F83A3010BD012010BD90F83930FE
:100BFC00202B18D1A9B1A2B190F83830012B12D00A
:100C0C00C28482840023212201620168C36380F8BC
:100C1C003920CA6880F8383042F08002CA60184621
:100C2C007047012070470220704790F83A30202B13
:100C3C0020D1E9B1E2B190F83830012B1AD0C2853D
:100C4C00828500232222C36380F83A2002688162E5
:100C5C00D16880F8383041F48071D1605169184600
:100C6C0041F001015161D16841F02001D160704720
:100C7C00012070470220704790F83A3010B5222BB3
:100C8C0036D183680169B3F5805F0268836A23D12A
:100C9C005268E9B9C2F3080223F8022B8362C48DAF
:100CAC00013CA4B2C4858CB90368DA6822F0200236
:100CBC00DA60DA6822F48072DA605A6922F0010292
:100CCC005A61202380F83A3000F076F9002010BDEC
:100CDC00D2B223F8012BE1E721B9591C5268816289
:100CEC001A70DCE75268591C816202F07F02F7E748
:100CFC00022010BD70470000036870B51A680446E6
:100D0C001607D9685D6907D196065AD58D0658D550
:100D1C00BDE87040FFF7B0BF15F0010502D111F42A
:100D2C00907F4ED0D30705D5CE0542BFE36B43F081
:100D3C000103E363500704D51DB1E36B43F00203D9
:100D4C00E363930704D51DB1E36B43F00403E36342
:100D5C00160704D51DB1E36B43F00803E363E36BA3
:100D6C00002B66D0950604D5880602D52046FFF7E1
:100D7C0083FF236820465D69E26B110702D415F0EE
:100D8C0040051AD0FFF758FE23685A69520610D551
:100D9C005A69606B22F040025A6150B1254B436393
:100DAC00FFF77EFA002844D0606BBDE87040436BBF
:100DBC0018472046FFF79EFF70BDFFF79BFFE563CA
:100DCC0070BD160627D50D0625D594F83920212A95
:100DDC002FD1A268B2F5805F226A17D11188C1F3B6
:100DEC0008015960216979B902322262E28C013A18
:100DFC0092B2E284EAB9DA6822F08002DA60DA6848
:100E0C0042F04002DA6070BD0132EEE7511C216203
:100E1C0012785A60EAE750060BD54A0609D5DA680B
:100E2C00204622F04002DA60202384F8393000F0AA
:100E3C00C1F870BD450E000808B50023406AC38593
:100E4C00C384FFF757FF08BD90F8392090F83A009B
:100E5C001043704700B591B02822002106A800F07D
:100E6C00E7F91422002101A800F0E2F9022306930D
:100E7C0001230A93102306A80B93FFF743FB0021D1
:100E8C000F2301A801930291039104910591FFF79F
:100E9C0001FD11B05DF804FBBFB5FFF775F9FFF765
:100EAC00D9FF1022002102A800F0C2F9384B4FF4F0
:100EBC0000519A69374842F010029A619A690024ED
:100ECC0002F010020092009A9A694FF4005642F018
:100EDC0004029A619B69002203F004030193019BB5
:100EEC00FFF706FB0123039302234FF4E1380C2791
:100EFC00294D02A92748049405930296FFF718FA86
:100F0C00264B284685E80801AC60EC602C61AC618E
:100F1C00EC616F61FFF73CFE2148224B846080E856
:100F2C000801C46004618461C4614761FFF730FE4D
:100F3C0012221D492846FFF759FE1C4C207018B18F
:100F4C0031461448FFF7D9FA122217491448FFF713
:100F5C004DFE207020B14FF400510E48FFF7CDFA32
:100F6C000D4E134D0E4C3046FFF76EFF202804D16A
:100F7C00012229463046FFF758FE2046FFF764FF52
:100F8C002028F0D1012229462046FFF74EFEEAE741
:100F9C0000100240001001404400002000380140C5
:100FAC009C0000200044004008000020410000206C
:100FBC0098000020704700000A4B10B59842044678
:100FCC0004D1012208490948FFF710FE074B9C4247
:100FDC0006D1BDE81040012203490248FFF706BEC6
:100FEC0010BD00BF44000020980000209C00002091
:100FFC000E4B82B09A6942F001029A619A6902F032
:10100C0001020092009ADA6942F08052DA61DB69DF
:10101C00074A03F080530193019B536823F0E0636C
:10102C0043F08063536002B0704700BF0010024071
:10103C0000000140102210B5044688B00DEB0200F0
:10104C00002100F0F5F82368324A934231D1324B3B
:10105C0004A99A69314842F480429A619A69002441
:10106C0002F480420092009A9A6942F004029A615A
:10107C009B6903F004030193019B4FF400730493E9
:10108C000223059303230793FFF752F94FF4806370
:10109C0004A92248049305940694FFF749F92520E6
:1010AC0022462146FFF7A6F82520FFF7D7F808B00F
:1010BC0010BD1B4A9342FAD1174B04A9DA691748A1
:1010CC0042F40032DA61DA69002402F4003202924E
:1010DC00029A9A6942F004029A619B6903F0040334
:1010EC000393039B04230493022305930323079385
:1010FC00FFF71EF9082304A90848049305940694E5
:10110C00FFF716F9262022462146FFF773F8262012
:10111C00CBE700BF0038014000100240000801403E
:10112C00004400407047FEE7FEE7FEE7FEE770472D
:10113C0070477047FFF73AB80148FFF7DDBD00BFB5
:10114C00440000200148FFF7D7BD00BF9C000020E1
:10115C000F4B1A6842F001021A6059680D4A0A4096
:10116C005A601A6822F0847222F480321A601A686B
:10117C0022F480221A605A6822F4FE025A604FF45C
:10118C001F029A604FF00062034B9A60704700BFD9
:10119C00001002400000FFF800ED00E0002103E029
:1011AC000B4B5B58435004310A480B4B42189A4284
:1011BC00F6D30A4A02E0002342F8043B084B9A4259
:1011CC00F9D3FFF7C5FF00F00FF8FFF765FE704786
:1011DC0094120008000000202000002020000020B5
:1011EC00DC000020FEE7000070B500250C4E0D4C15
:1011FC00A41BA410A54209D100F022F800250A4E28
:10120C000A4CA41BA410A54205D170BD56F825307C
:10121C0098470135EEE756F8253098470135F2E747
:10122C008C1200088C1200088C1200089012000816
:10123C0003460244934200D1704703F8011BF9E7BF
:10124C00F8B500BFF8BC08BC9E467047F8B500BFA7
:08125C00F8BC08BC9E46704777
:1012640002030405060708090A0B0C0D0E0F1010E3
:101274000000000000000000010203040607080942
:08128400000000000102030458
:04128C003101000824
:041290000D01000844
:1012940001000000100000000D0A20556172742046
:1012A40052656164793A200D0A20000000A24A04C4
:04000005080011A935
:00000001FF
